:020000040800F2
:1000000080970020DD010008390F00083B0F000831
:100010003D0F00083F0F0008410F000800000000DE
:100020000000000000000000000000004501000882
:10003000430F00080000000089010008450F000878
:10004000F7010008F7010008F7010008F7010008B0
:10005000F7010008F7010008F7010008F7010008A0
:10006000F7010008F7010008F7010008F701000890
:10007000F7010008F7010008F7010008F701000880
:10008000F7010008F7010008F7010008F701000870
:10009000F7010008F7010008F7010008F701000860
:1000A000F7010008F7010008F7010008F701000850
:1000B000F7010008F7010008F7010008F701000840
:1000C000F7010008F7010008F7010008F701000830
:1000D000F7010008F7010008F7010008F701000820
:1000E000F7010008F7010008F7010008F701000810
:1000F000F7010008F7010008F7010008F701000800
:10010000F7010008F7010008F7010008F7010008EF
:10011000F7010008F7010008F7010008F7010008DF
:10012000F7010008F7010008F7010008F7010008CF
:10013000DFF80CD002F0FAFB004800474F0E000831
:1001400080970020224B19680868B0E8F00F80F310
:100150000988BFF36F8F4FF0000080F311884EF0D5
:100160000D0E70470000000006480068006880F32C
:10017000088862B661B6BFF34F8FBFF36F8F00DFA1
:1001800000BF00BF08ED00E0EFF30980BFF36F8F01
:100190000F4B1A6820E9F00F106008B54FF05000BF
:1001A00080F31188BFF34F8FBFF36F8F01F018FDFD
:1001B0004FF0000080F31188BDE808401968086816
:1001C000B0E8F00F80F30988BFF36F8F704700BF6E
:1001D00038000020EFF30580704700000648804794
:1001E00006480047FEE7FEE7FEE7FEE7FEE7FEE71C
:1001F000FEE7FEE7FEE7FEE7A9020008310100087E
:100200000CB50022019200925248016841F48031FD
:1002100001604FF4A063016801F40031009101997D
:10022000491C0191009911B901999942F3D10168D2
:10023000890302D50121009100E000920099012973
:1002400030D145490A6842F010020A600A6822F07B
:1002500003020A600A6842F002020A6041684160D3
:1002600041684160416841F480614160416821F426
:100270007C114160416841F4E8114160016841F03E
:100280008071016001688901FCD5416821F003019A
:100290004160416841F0020141604168C1F3810160
:1002A0000229FAD10CBDABE710B52A48016841F02C
:1002B000010101604168294A114041600168284AF2
:1002C00011400160016821F480210160416821F43E
:1002D000FE0141604FF41F018160FFF7E4FF2149F7
:1002E0004FF00060086010BD10B51A4A506800F069
:1002F0000C011D4B1D4800290ED004290ED00829E1
:100300000ED003605168194AC1F30311121D515CEC
:100310000268CA40026010BD0360F3E70360F1E7C2
:10032000516801F47011536803F48033022404EB24
:10033000914133B153689B0307D50D4B594301607D
:10034000E0E70B4B59430160DCE7074B5943016081
:10035000D8E7000000100240002002400000FFF833
:10036000FFFFF6FE08ED00E000127A00000000201A
:1003700000093D002A4908432A490860704770B5C2
:100380000F23C27801260178002A1ED0254A126860
:1003900002F4E062C2F5E062120AC2F10404D34042
:1003A0004578A54082781A402A43120101F1E021E4
:1003B00081F80024007800F01F018E404009800081
:1003C00000F1E020C0F8006170BD01F01F00864020
:1003D0004809800000F1E020C0F8806170BD124A39
:1003E000114001430F48001F016070470D4A121D64
:1003F000002903D0116801431160704711688143DF
:10040000116070474FF0E021042804D0086920F003
:10041000040008617047086940F0040008617047F3
:100420000000FA050CED00E080FFFF1F10B59C49AD
:10043000884209D10121042000F07DFA0021BDE8A5
:100440001040042000F077BA9649884209D1012172
:10045000082000F070FA0021BDE81040082000F0EC
:100460006ABA9149884209D10121102000F063FA4B
:100470000021BDE81040102000F05DBA8B49884291
:1004800009D10121202000F056FA0021BDE81040DA
:10049000202000F050BA8649884209D1012140202D
:1004A00000F049FA0021BDE81040402000F043BAB6
:1004B0008049884209D10121802000F03CFA0021C6
:1004C000BDE81040802000F036BA7B4988420AD14E
:1004D00084150121204600F02EFA2046BDE8104088
:1004E000002100F028BA10BD10B50121084600F027
:1004F00022FA0021BDE81040012000F01CBA2DE9CD
:10050000F0410022CC7804F00F03E40601D58C788A
:1005100023430C784FF00F0714F0FF0F4FF0010C3E
:100520001CD005680CFA02F40E882640A64211D1B0
:10053000960007FA06F825EA080503FA06F848EADD
:100540000505CE78282E02D0482E02D002E0446164
:1005500000E00461521C082AE4D305600A88FF2ADF
:100560001ED94568002202F108060CFA06F40E882E
:100570002640A64210D1960007FA06F825EA08059B
:1005800003FA06F848EA0505CE78282E00D1446122
:10059000CE78482E00D10461521C082AE3D345606E
:1005A000BDE8F0814FF6FF710180022181700421C6
:1005B000C17070470246002092680A4200D00120B4
:1005C0007047806880B2704702460020D2680A42B5
:1005D00000D001207047C06880B270470161704749
:1005E00041617047002A01D0016170474161704745
:1005F000C160704741F480328261816182618169AA
:100600008069704710B52D4B1A684FF680742240F0
:1006100042EA00100843186010BD2949C8617047BC
:10062000F0B5264C002801DAE36900E06368C0F306
:100630000346420D120185B2C0F301579540032FC6
:1006400007D0C2020CD50322B240934343F070623C
:1006500009E023F07062636823F07063636002E076
:10066000AB4343F0706201B12A43002801DAE26132
:10067000F0BD6260F0BD10B58A07120F0F239340E2
:1006800021F003040D4921448C689C438C608B68E5
:10069000904003438B6010BD0949DC31086070470E
:1006A00000080140000C014000100140001401400E
:1006B00000180140001C01400020014000000140E2
:1006C00000002042B448016841F001010160416826
:1006D000B24A114041600168B14A114001600168AD
:1006E00021F480210160416821F4FE0141604FF452
:1006F0001F0181607047A8490A6822F480320A60AD
:100700000A6822F480220A60B0F5803F07D0B0F575
:10071000802F03D1086840F4A02008607047086863
:1007200040F48030086070470346002059099A4A17
:1007300001290AD002290AD0516A03F01F020123BD
:1007400093400B4200D0012070471168F5E7116A11
:10075000F3E718B5002000904FF4A0643120FFF7B4
:10076000E3FF0099491C00910099A14201D00028A3
:10077000F4D03120FFF7D8FF08B1012018BD0020C8
:1007800018BD854A116821F0F80141EAC0001060E7
:1007900070478449086070477F4B5A6822F47C1286
:1007A00008431043586070477E49086670477A4A8C
:1007B000516821F003010143516070477648406859
:1007C00000F00C007047744A516821F0F0010143B9
:1007D00051607047704A516821F4E06101435160F3
:1007E00070476D4A516821F4605141EAC000506081
:1007F0007047694A002903D0517A0143517270470A
:10080000517A8143517270476649D8310860704708
:10081000614A516821F440410143516070475E498B
:10082000002220310A7001F82029012805D004286F
:1008300002D1052081F820007047012081F82000B6
:10084000704759490860704753490A6A02430A626F
:100850007047554944390860704710B54E4A516891
:1008600001F00C01514B002927D0042927D0082979
:1008700027D00360516801F0F00109094C4B5C5C22
:100880000168E1404160546804F4E064240A1C5D9E
:1008900021FA04F48460546804F46054E40A1B5D93
:1008A000D940C160526802F44042920B404B1B1F7A
:1008B0009A5CB1FBF2F1016110BD0360DAE70360FD
:1008C000D8E7516801F47011536803F480330224AF
:1008D00004EB914133B153689B0307D5354B594322
:1008E0000160C7E7334B59430160C3E72F4B5943BE
:1008F0000160BFE7284A002903D0516901435161D3
:1009000070475169814351617047234A002903D0E0
:100910009169014391617047916981439161704789
:100920001D4A002903D0D1690143D1617047D169C3
:100930008143D1617047184A002903D0D16801432F
:10094000D1607047D1688143D1607047124A002955
:1009500003D011690143116170471169814311612D
:10096000704711494039086070470E49C8647047A4
:100970000949C87170470848416A41F08071416275
:10098000704701460020044A92680A4200D00120C4
:100990007047014988727047001002400000FFF85C
:1009A000FFFFF6FE000042428004424200127A003D
:1009B0001800002000093D0010B5E14988420AD125
:1009C00001218C032046FFF7B6FF2046BDE810400A
:1009D0000021FFF7B0BFDB4988420AD101214C0456
:1009E0002046FFF7B3FF2046BDE810400021FFF787
:1009F000ADBFD54988420AD101218C042046FFF7BA
:100A0000A5FF2046BDE810400021FFF79FBFCF495A
:100A100088420AD10121CC042046FFF797FF2046E7
:100A2000BDE810400021FFF791BFC94988420AD1B3
:100A300001210C052046FFF789FF2046BDE8104044
:100A40000021FFF783BF10BD30B585B004460D46C9
:100A5000208A4CF6FF710840E98801432182A08971
:100A60004EF6F3110840A9882A8911436A89024386
:100A70001143A181A08A4FF6FF410840A989014393
:100A8000A1826846FFF7E9FEAD48844201D1039890
:100A900000E00298A189090408D500EBC00101EB30
:100AA000001029684900B0FBF1F007E000EBC0013D
:100AB00001EB001029688900B0FBF1F06422B0FB63
:100AC000F2F109010B096FF018056B4300EB83008D
:100AD000A3891D044FF0320307D503EBC000B0FB20
:100AE000F2F000F00700084306E003EB0010B0FB53
:100AF000F2F000F00F000843208105B030BD4FF444
:100B00001651016000218180C18001810C22428147
:100B10008181704710B5038A4FF2FF0213400A88A3
:100B20004C8822438C88C9880C4322431A43028292
:100B300010BD0021018041808180C1807047002963
:100B400004D0818941F4005181817047818921F469
:100B500000518181704710B540F66A13C1F342130A
:100B600001F01F040121A140012B07D0022B07D067
:100B700014303AB102680A43026010BD0C30F8E745
:100B80001030F6E702688A43026010BD002A03D0E5
:100B9000828A0A4382827047828A8A4382827047AD
:100BA000028A22F00F020282028A0A4302827047FE
:100BB000828922F40062828182890A43828170479D
:100BC000002904D0818941F0020181817047818927
:100BD00021F0020181817047028A22F02002028204
:100BE000028A0A4302827047002904D0018A41F434
:100BF000804101827047018A21F48041018270475F
:100C0000C1F30801818070478088C0F308007047F5
:100C1000818941F0010181817047028BD2B2028348
:100C2000028B42EA012101837047028B02F47F426A
:100C30000283028B0A4302837047002904D0818A11
:100C400041F0200181827047818A21F02001818258
:100C50007047002904D0818A41F0100181827047D9
:100C6000818A21F0100181827047002904D0818A95
:100C700041F0080181827047818A21F00801818258
:100C80007047002904D0818941F400418181704777
:100C90008189C1F30E0181817047002904D0818AC6
:100CA00041F4006181827047818A21F40061818270
:100CB0007047828A22F004028282828A0A438282F8
:100CC0007047002904D0818A41F002018182704777
:100CD000818A21F002018182704702460020128839
:100CE0000A4200D0012070478A05C943018070473D
:100CF00070B5002440F66A12C1F3421301F01F05DB
:100D0000012606FA05F2012B0CD0022B0DD0838AA6
:100D10001340090A8E40008830400BB100B1012415
:100D2000204670BD83891340F3E7038A1340F0E740
:100D300040F66A120A0A01219140C94301807047B6
:100D4000003801400044004000480040004C004092
:100D500000500040484C494D15E00221E06800F089
:100D600000FA47A001F0F4FD2021284600F0D8F950
:100D700030B90421E06800F0F4F944A001F0E8FD86
:100D8000142000F05DFE1021284600F0C9F900286B
:100D9000EAD1E2E708B5394C374D4FF0FF360C3455
:100DA000012300961A460621E86800F089FAC0F38C
:100DB0004100032803D038A001F0CAFDF0E739A0B4
:100DC00001F0C6FD206880F008002060E8E77CB5EF
:100DD00001F00AFD00F0B8F9274CE06010B136A030
:100DE00001F0B6FD24480221001DCDE900100D02DE
:100DF00000232A4636A13A4800F030FC012802D1EF
:100E000038A001F0A5FD1C4804210830CDE90010F0
:100E100000232A4639A13C4800F020FC012802D1D9
:100E20003AA001F095FD206800F061FCBDE87C402F
:100E300001F0F4BC10B54FF44070FFF79BFA00F0DE
:100E40008BF800F0A7F8BDE8104000F04FB91CB5D2
:100E5000FFF7F0FF08480121CDE900104A02002306
:100E600030A1344800F0FAFB012802D04FF0FF30E7
:100E70001CBD01F002F8FEE728000020001401402C
:100E80004B455931B1BBB5A5BBF70A004B455932AB
:100E9000B1BBB5A5BBF70A00CAC2BCFEB4EDCEF328
:100EA0000A0000004B455931D3EB4B455932B6BCD3
:100EB000B0B4CFC20A000000B4B4BDA84576656ED8
:100EC000745F48616E646C65B3C9B9A6210D0A00F0
:100ED000526563656976655F5461736B000000005D
:100EE000950D0008B4B4BDA84C45445F5461736BC4
:100EF000C8CECEF1B3C9B9A6210D0A0053656E6400
:100F00005F5461736B000000550D0008B4B4BDA8B8
:100F10004B45595F5461736BC8CECEF1B3C9B9A6C6
:100F2000210D0A004170705461736B4372656174E6
:100F300065000000CF0D00087047FEE7FEE7FEE702
:100F4000FEE7704710B501F0F2F8012803D0BDE8C4
:100F5000104001F076BC10BD08B501216020FFF7FC
:100F6000D4FC0820ADF8000010208DF80300032009
:100F70008DF8020069460548FFF7C1FA2020ADF858
:100F8000000069460248FFF7BAFA08BD00140140A4
:100F90000018014010B586B001210420FFF7B5FC10
:100FA00001218803FFF7B1FC4FF40070ADF8140085
:100FB00018208DF8170003208DF81600494C05A95C
:100FC0002046FFF79CFA2115ADF8141004218DF886
:100FD000171005A92046FFF792FA4FF4E13001906F
:100FE0000020ADF80800ADF80A00ADF80C00ADF82F
:100FF00010000C20ADF80E003B4C01A92046FFF775
:1010000023FD01212046FFF79AFD06B010BD10B563
:1010100004462046FFF7F4FD80212046FFF75DFEE1
:101020000028F9D010BD2DE9F04107460D461646BF
:10103000002405E0295D3846FFF7E9FF641CE4B2AF
:10104000B442F7D340213846FFF747FE0028F9D0D5
:10105000BDE8F08170B506460D4600243046295D96
:10106000FFF7D5FF641C285D0028F7D140213046EA
:10107000FFF733FE0028F9D070BD70B50546080AA9
:10108000CCB201462846FFF7BBFD80212846FFF77A
:1010900024FE0028F9D021462846FFF7B1FD802123
:1010A0002846FFF71AFE0028F9D070BD70B5044637
:1010B0000D4DE1B22846FFF7A3FD80212846FFF73A
:1010C0000CFE0028F9D0204670BD10B5064C20213A
:1010D0002046FFF702FE0028F9D02046BDE8104068
:1010E000FFF792BD000801400038014038B50121EA
:1010F0002020FFF70AFC1020ADF8000004248DF832
:101100000340104D69462846FFF7F9F92021ADF854
:1011100000108DF8034069462846FFF7F0F938BD06
:1011200070B504460D4629462046FFF743FA08B13C
:10113000012070BD29462046FFF73CFA0028F9D06F
:10114000002070BD0014014010B5182001F021FAF4
:10115000044624B100202060201D00F095F92046AF
:1011600010BD2DE9F041884600250446002805D130
:1011700040F21D22B6A1BFA001F0EAFB5FEA1860B1
:1011800005D040F21E22B2A1BAA001F0E1FB261D5B
:1011900006F1080700F007FCF068216841EA080141
:1011A000216020E046680168002201F07F4321F0C1
:1011B0007F415FEA431C06D4D4F800C01CEA010F4B
:1011C00007D0012205E0D4F800C031EA0C0C00D1B0
:1011D00001223AB1DA0100D50D43216841F00071D6
:1011E00000F01CFF3046B842DCD12068A8432060E4
:1011F00000F02AFB2068BDE8F0812DE9F0410446AB
:10120000884615461F46280E04D0D72290A199A0E3
:1012100001F09EFB25B9D8228DA196A001F098FB84
:1012200000F085FF28B927B1DB2289A191A001F048
:101230008FFB00F0B8FB266841462046FFF791FF80
:1012400046EA080635EA060008D067B145F0A06115
:101250003A46201D00F083FE002605E02068A843E2
:101260002060002700E0266800F0EEFAD7B138B918
:1012700084494FF080500860BFF34F8FBFF36F8FEA
:1012800000F070FF0646B0010AD401F0ADFA2668FE
:1012900035EA060002D126EA0500206001F0BEFA18
:1012A00026F07F463046A6E703460020002A03D0FA
:1012B000994300D1012070470B42FCD001207047B8
:1012C0002DE9F0470D46089F9046994604460026B2
:1012D000002805D140F24D125DA166A001F038FB57
:1012E000280E05D04FF4A77259A162A001F030FB7F
:1012F0002DB940F24F1256A15EA001F029FB00F07B
:1013000016FF30B92FB14FF4A97251A159A001F0C5
:101310001FFB00F048FBD4F800A04A46294650467F
:10132000FFF7C2FF40B156460027B8F1000F15D0B5
:101330002068A843206011E0AFB1B8F1000F01D0E0
:101340004FF08076B9F1000F01D046F0806645EA93
:1013500006013A46201D00F002FE002600F074FA55
:101360001FB310B109E05646F8E746494FF08050E8
:101370000860BFF34F8FBFF36F8F00F0F3FE064698
:10138000B00110D401F030FA26684A4629463046AA
:10139000FFF78AFF28B1B8F1000F02D02068A843F8
:1013A000206001F03BFA26F07F463046BDE8F0872A
:1013B00070B50E460446002805D140F2DF1224A184
:1013C0002CA001F0C5FA300E05D04FF4F07220A128
:1013D00028A001F0BDFA01F007FA256825EA060009
:1013E000206001F01BFA284670BD5022EFF31181F6
:1013F00082F31188BFF34F8FBFF36F8F006881F3C3
:10140000118870472DE9F0410646341D00F0CBFAF3
:1014100004F1080540F27D274FF000780BE0E0680A
:10142000A84204D13A460AA112A001F091FA41461D
:10143000E06800F0F3FD20680028F0D1304601F0AC
:101440000FF9BDE8F04100F0FFB98AE6B0E700000F
:101450002E2E5C2E2E5C4672656552544F535C7383
:1014600072635C6576656E745F67726F7570732EFC
:10147000630000004572726F723A25732C25640D6B
:101480000A00000004ED00E000F1080141604FF0A7
:10149000FF328260C160016100210160704700215C
:1014A0000161704742684A6093688B609368596035
:1014B000916008610168491C0160704730B50C6893
:1014C000621C02D000F1080202E0026904E01A4640
:1014D00053681D68A542FAD953684B6099608A60C9
:1014E000516008610168491C016030BD0169D0E9A3
:1014F00001329A60D0E901235A604A68824201D1E0
:1015000082684A60002202610868401E08607047D5
:1015100070B50024FB4D04EB840005EB8000FFF761
:10152000B3FF641C202CF6D3F748FFF7ADFFF64855
:101530001430FFF7A9FFF4482830FFF7A5FFF24861
:101540003C30FFF7A1FFF0485030FFF79DFFEF4818
:10155000ED4941631431816370BD70B5044601F0FB
:1015600043F9EA4DA868401CA860286810B1686972
:1015700038B10CE02C60A868012808D1FFF7C8FF3B
:1015800005E02868E16AC06A884200D82C60686A71
:10159000401C6862E06A01212A6981401143296187
:1015A000D84900EB800001EB8000211DFFF77AFF96
:1015B00001F034F9686900280CD02868E16AC06A33
:1015C000884207D2D2494FF080500860BFF34F8F56
:1015D000BFF36F8F70BD2DE9F0478146DDE90858F4
:1015E0000A9C0E469A46206B521E00EB820020F0A9
:1015F0000707780705D040F22B32C6A1CCA001F036
:10160000A7F900202218315C82F83410315C11B146
:10161000401C1028F6D3002684F84360202D00D308
:101620001F25E562201DFFF73AFF04F11800FFF7C0
:1016300036FF2461C5F12000A0616462666484F80D
:10164000486052464946384601F075F82060B8F1C6
:10165000000F01D0C8F80040BDE8F0872DE9FF5F1A
:101660008146DDE90E788A4616469B46B00000F0BA
:1016700090FF054628000AD04C2000F08AFF04465F
:101680000CB1256304E0284600F0EAFF00E00024E6
:101690008CB10020CDE90240CDE900785B463246AE
:1016A00051464846FFF797FF2046FFF756FF0120B7
:1016B00004B0BDE8F09F4FF0FF30F9E79348416B6D
:1016C0000968002905D0416BC968C9684968816209
:1016D00070474FF0FF318162704710B50446206BB0
:1016E00000F0BEFF2046BDE8104000F0B9BF70B565
:1016F000044601F079F8854D04B92C68201DFFF7E8
:10170000F5FE58B9E06A7F4A00EB800152F82110DB
:1017100021B901218140286988432861A06A18B154
:1017200004F11800FFF7E2FE686A401C686228684E
:10173000844208D17448211D3C30FFF7B3FE68682D
:10174000401C686007E0A868401EA8602046FFF7BC
:10175000C4FFFFF7B3FF01F061F86869002812D0F9
:10176000286884420FD1286B28B140F2654269A1F4
:101770006FA001F0EDF866494FF080500860BFF3AC
:101780004F8FBFF36F8F70BD2DE9F04100265F4F83
:10179000386B002808D0B869401CB861F86900B1FE
:1017A00001263046BDE8F081FD686D1CFD608DB9F5
:1017B000786B006828B140F6D91256A15CA001F000
:1017C000C7F8786BB96B7963B863386A401C3862C4
:1017D000FFF774FFB86ADFF82C8185420DD3786B70
:1017E000006838B1786BC068C468606885420ED202
:1017F000B86202E04FF0FF30B8623868C06A00EBB0
:10180000800058F820000128C8D90126C6E7201D0D
:10181000FFF76CFEA06A18B104F11800FFF766FE2E
:10182000E06A01213A6981401143396100EB80008F
:1018300008EB8000211DFFF735FEE06A3968C96AB0
:101840008842CCD30126CAE72DE9F04100240027C5
:101850002E4D286B002805D14FF4FD622DA134A038
:1018600001F076F800F0C0FF286B401E2863286B5B
:10187000F0BBA868E0B3DFF89080012608F12808E3
:101880001DE0D8F80C00C46804F11800FFF72EFE24
:10189000201DFFF72BFEE06A2A6906FA00F11143CA
:1018A0002961184900EB800001EB8000211DFFF742
:1018B000F9FDE06A2968C96A884200D3EE61D8F868
:1018C00000000028DDD10CB1FFF7F8FEAC6944B18F
:1018D000FFF75AFF00B1EE61641E002CF8D1002022
:1018E000A861E86920B1012709493807086000E0CC
:1018F00003E0BFF34F8FBFF36F8F00F08FFF3846C9
:1019000050E700009C0000201C030020380000204D
:1019100004ED00E02E2E5C2E2E5C4672656552545E
:101920004F535C7372635C7461736B732E6300005E
:101930004572726F723A25732C25640D0A000000FF
:101940002DE9F04104460F46FE4EF5683068001D53
:10195000FFF7CCFD38B9306890F82C100120884092
:10196000316981433161601C07D137B13168BDE80D
:10197000F041091DF448FFF795BD2C4430684460E0
:10198000AC4206D23168B06B091DBDE8F041FFF7EB
:1019900095BD3168706B091DFFF790FDB06A8442F8
:1019A00000D2B462FEE6E748016B491C0163704750
:1019B0002DE9F04105460E460024002D07D140F2E6
:1019C0007942AFF2B001AFF2980000F0C1FF3EB92A
:1019D00040F27A42AFF2C401AFF2AC0000F0B8FFBF
:1019E000D84F386B38B140F27B42AFF2D801AFF23A
:1019F000C00000F0ADFFFFF7D6FFFA682B68991919
:101A0000934205D98B4208D9914206D9012404E0BA
:101A10008B4201D8914200D9012429601CB1881A57
:101A20000021FFF78DFFFFF70FFF002807D1C749FF
:101A30004FF080500860BFF34F8FBFF36F8FB1E658
:101A400010B504460020002C12D0BE48006B38B1FF
:101A500040F2CF42AFF24411AFF22C1000F078FF09
:101A6000FFF7A1FF00212046FFF76AFFFFF7ECFE1A
:101A7000002807D1B5494FF080500860BFF34F8F61
:101A8000BFF36F8F10BD70B50546002D07D140F232
:101A9000FB42AFF28011AFF2681000F059FFA94E7F
:101AA0003068854201D1002070BD00F09DFE6C6958
:101AB00000F0B4FE706B844202D0B06B844201D15E
:101AC000022070BDA048844205D1A86A08B1022056
:101AD00070BD032070BD9C481438844202D00CB104
:101AE000012070BD042070BD10B5044600F07CFEDE
:101AF0000CB994480468E46A00F090FE204610BDDA
:101B000010B5044600F0B1FE5020EFF3118180F3D0
:101B10001188BFF34F8FBFF36F8F0CB989480468EA
:101B2000E06A81F3118810BD2DE9F04104460D46AD
:101B30000026202D07D34FF4B062AFF22821AFF278
:101B4000102000F005FF202D00D31F2500F04CFED3
:101B50007C4F04B93C68D4F82C80A8453CD045455E
:101B600008D93868844209D03868C06AA84205D8C4
:101B7000012603E03868844200D10126E562A069AD
:101B8000002802DBC5F12000A061714D08EB88013F
:101B9000606905EB8101884215D1201DFFF7A6FC85
:101BA000012120B93A6901FA08F082433A61E06AFA
:101BB0003A6981401143396100EB800005EB8000F8
:101BC000211DFFF76FFC3EB160494FF08050086067
:101BD000BFF34F8FBFF36F8FBDE8F04100F01EBE23
:101BE00070B5584D286B002802D00120E86170BD07
:101BF0000020E8612869B0FA80F0C0F11F00544E5F
:101C000000EB800456F8240038B940F6F622AFF213
:101C1000FC21AFF2E42000F09BFE06EB840041685B
:101C20004968416000F10802914201D14968416070
:101C30004068C068286070BD70B5044600F0D4FDEF
:101C4000404D04B92C68201DFFF750FC58B9E06ADC
:101C50003F4A00EB800152F8211021B90121814057
:101C6000286988432861A06A18B104F11800FFF7B9
:101C70003DFC211D3448FFF715FC00F0CFFD6869DD
:101C800028B100F0B1FDFFF719FD00F0C7FD28688D
:101C9000844213D1686990B1286B38B140F2576221
:101CA000AFF29031AFF2783000F052FE27494FF09A
:101CB00080500860BFF34F8FBFF36F8F70BD224815
:101CC000A9680068884202D10020286070BDBDE884
:101CD000704085E770B500250446002807D140F222
:101CE0008162AFF2D031AFF2B83000F031FE164968
:101CF0006069884205D1A06A2839884201D000B9BC
:101D00000125284670BD70B50446002807D140F271
:101D1000AB62AFF20041AFF2E83000F019FE002CE8
:101D200034D0084D2868844230D000F05DFD204654
:101D3000FFF7D0FF30B3201DFFF7D8FBE06A012189
:101D4000814007E0380000206C03002004ED00E033
:101D50009C0000202A6911432961F94900EB8000A9
:101D600001EB8000211DFFF79DFBE06A2968C96A2D
:101D7000884207D3F3494FF080500860BFF34F8F7C
:101D8000BFF36F8FBDE8704000F048BD70BD2DE916
:101D9000F04100260446002807D140F2E262AFF28B
:101DA0008C41AFF2744000F0D3FD00F05EFD502096
:101DB000EFF3118580F31188BFF34F8FBFF36F8F5F
:101DC0002046FFF787FF38B1DF4F386B40B104F191
:101DD0001801DE48FFF766FB85F311883046E1E421
:101DE000E06A3968C96A884200D30126201DFFF7DE
:101DF0007DFBE06A01213A69814011433961D04994
:101E000000EB800001EB8000211DFFF74BFBE3E7B7
:101E100070B5CE4ECC4D14361CE0FFF7C4FD3068D3
:101E200020B10024FFF710FDA4B901E00124F9E777
:101E300000F0DAFCF068C468201DFFF757FBA868C3
:101E4000401EA8606868401E686000F0E7FC2046FD
:101E5000FFF743FC68680028DFD170BDB84E4FF033
:101E60008054B84DFFF7D4FF30680128FAD92C60B0
:101E7000BFF34F8FBFF36F8FF4E71CB5B248002458
:101E80002C30CDE9004023468022B1A1B248FFF7B3
:101E9000E5FB01280CD0401C1CD140F28472AFF24B
:101EA0008C51AFF2745002B0BDE8104000F050BD4C
:101EB000502080F31188BFF34F8FBFF36F8FA2487C
:101EC0004FF0FF31816201214161C460BDE81C40D7
:101ED00000F04ABC1CBD502080F31188BFF34F8F27
:101EE000BFF36F8F98490020486100F071BC96489D
:101EF000C068704710B500F0B8FC9348C06810BDCA
:101F000091488068704710B5002802D004461CB183
:101F10000AE08D480468FAE740F68C02AFF20C61E3
:101F2000AFF2F45000F014FD04F1340010BD70B5B0
:101F300004460D46002C07D140F60632AFF22C6164
:101F4000AFF2146000F004FD7F48016820461831AC
:101F5000FFF7B4FA2846BDE870400121F0E42DE90E
:101F6000F04105460E461746002D07D140F61732C0
:101F7000AFF26061AFF2486000F0EAFC724C206B97
:101F800038B940F61B32AFF27461AFF25C6000F01A
:101F9000DFFC216846F0004088612168284618313E
:101FA000FFF780FA3846BDE8F0410121C8E42DE989
:101FB000F041C068C468002C07D140F66132AFF22E
:101FC000AC61AFF2946000F0C3FC04F11800074666
:101FD000FFF78CFA5C4D2A6B01265AB139465B48F3
:101FE000FFF760FAE06A2968C96A884214D90120BB
:101FF000EE6185E4201DFFF779FAE06A2A6906FAA6
:1020000000F1114329614E4900EB800001EB800093
:10201000211DFFF747FAE5E7002071E470B5064699
:102020000C46494D286B002807D140F69932AFF293
:102030001C71AFF2047000F08BFC44F00040306083
:10204000F4683CB940F6A132AFF23871AFF22070BB
:1020500000F07EFC3046FFF749FA201DFFF746FAF4
:10206000E06A01262A6906FA00F111432961344920
:1020700000EB800001EB8000211DFFF713FAE06AFE
:102080002968C96A884202D90120EE6170BD00202A
:1020900070BD10B50446002C07D140F6C132AFF236
:1020A0008C71AFF2747000F053FC2748016A216014
:1020B000C068606010BD70B504460D46002C07D1A5
:1020C00040F6CB32AFF2B471AFF29C7000F040FC3E
:1020D0003DB940F6CC32AFF2C471AFF2AC7000F053
:1020E00037FC00F081FB184AD06829684B1C08D0E7
:1020F0002368126A934206D06268824203D80124A0
:102100000DE000240BE06268801A884206D2081AAB
:1021100028602046FFF7BDFF002400E0012400F006
:102120007DFB204670BD08490120C8617047064804
:102130004169002912D0006B90B100207047000067
:102140009C00002004ED00E0380000204403002043
:1021500049444C45000000005D1E00080120EDE7E9
:102160000220EBE7E249086880690A680968D26AD8
:10217000C2F120028A61E1E770B506460C4600F024
:1021800033FBDB4D2868406C80B92A68012082F857
:1021900048005CB101212046FFF7D2FBD5494FF042
:1021A00080500860BFF34F8FBFF36F8F00F036FB96
:1021B00000F01AFB2868446C002034B116B129687D
:1021C000486402E02A68611E5164296881F8480069
:1021D00000F024FB204670BD2DE9F04781460F46F4
:1021E0001646984600F000FBC14D286890F848005C
:1021F000022817D02C68606C20EA09006064296806
:10220000012081F84800B8F1000F0BD001214046B1
:10221000FFF796FBB7494FF080500860BFF34F8F30
:10222000BFF36F8F00F0FAFA00F0DEFA16B12868FB
:10223000406C3060286890F8480001280DD028686C
:10224000416CB943416401242968002081F84800A9
:1022500000F0E4FA2046BDE8F0870024F4E72DE919
:10226000F04104460D4690461F460126002C07D13A
:1022700041F2FD02AFF66411AFF64C1000F068FBBE
:1022800000F0B2FA0FB1606C386094F84800022197
:1022900084F84810B8F1050F13D2DFE808F01203F4
:1022A000070B0D00616C294361640AE0616C491CF5
:1022B000616406E0656404E0022801D0656400E022
:1022C0000026012828D1201DFFF710F9884DE06A6B
:1022D00001212A69814011432961874900EB80006F
:1022E00001EB8000211DFFF7DDF8A06A38B141F253
:1022F0003512AFF6E011AFF6C81000F029FBE06A26
:102300002968C96A884207D97A494FF08050086025
:10231000BFF34F8FBFF36F8F00F080FA30465EE55A
:102320002DE9F0470446DDF820800D4691469A4697
:102330000127002C07D141F26812AFF62821AFF631
:10234000102000F005FB00F090FA5020EFF311860A
:1023500080F31188BFF34F8FBFF36F8FBAF1000F77
:1023600002D0606CCAF8000094F84800022184F89A
:102370004810B9F1050F13D2DFE809F01203070B7B
:102380000D00616C294361640AE0616C491C616461
:1023900006E0656404E0022801D0656400E00027DF
:1023A000012832D1A06A38B141F2AF12AFF69C21B8
:1023B000AFF6842000F0CCFA4D4D286B4FF00109A8
:1023C00078B104F118014D48FFF76CF8E06A29680C
:1023D000C96A884219D9B8F1000F14D0C8F8009022
:1023E00013E0201DFFF782F8E06A2A6909FA00F17C
:1023F0001143296100EB80013F4800EB8100211D62
:10240000FFF750F8E2E7C5F81C9086F311883846CC
:1024100021E72DE9F04104468846002C07D141F21E
:10242000E312AFF61031AFF6F82000F091FA00F0A9
:102430001CFA5020EFF3118780F31188BFF34F8F00
:10244000BFF36F8F94F84800022184F84810616C44
:10245000491C6164012830D1A06A38B141F20922D7
:10246000AFF65031AFF6383000F072FA204D286BDD
:10247000012678B104F118012048FFF713F8E06A4B
:102480002968C96A884218D9B8F1000F14D0C8F871
:10249000006012E0201DFFF729F8E06A2A6906FAB9
:1024A00000F111432961144900EB800001EB800029
:1024B000211DFEF7F7FFE2E7EE6187F311888EE456
:1024C00010B500280BD0044600F08EF994F84800AF
:1024D000022807D0002400F0A1F9204610BD0448CE
:1024E0000468F1E7002084F848000124F3E70000C5
:1024F0003800002004ED00E09C0000204403002090
:1025000030B5744900E011460A688242FBD34B683B
:102510005C18844203D140681844486008460D683E
:1025200044682318AB420DD16A4B103B1B689A429A
:1025300006D05268224442600A681268026002E0D3
:10254000036000E00260814200D0086030BD4FF4BB
:1025500010416148420706D0C01D20F007005E49C7
:10256000411AC1F510415B4A1060002353600144D9
:10257000083921F00701103A11604B600B600B1A0B
:10258000436001604068906050604FF00040D06050
:1025900070472DE9F04105460026FFF704FA4D4F3C
:1025A000103F386808B9FFF7D2FFF86805424AD1F2
:1025B00075B1083568070BD005F00700C0F10800B9
:1025C0000544680704D0BF2244A14EA000F0C0F922
:1025D000002D38D07868854235D83E4908460468D1
:1025E00001E0214604466068A84202D22068002823
:1025F000F7D13868844226D00E6808362068086013
:102600006068401B102811D904EB05085FEA487088
:1026100004D0EC2231A13BA000F09AF96068401B85
:10262000C8F8040065604046FFF76AFF6168786893
:10263000401A7860BA68904200D2B860F8680143E6
:10264000616000202060FFF7FFF8700705D04FF4AD
:10265000967222A12BA000F07BF93046BDE8F081F4
:1026600070B500282BD0083804461A4D6068103D1C
:10267000E968084205D14FF4A07218A121A000F02A
:1026800067F9206828B140F2411214A11DA000F0A2
:102690005FF96068E968084211D02268002A0ED10B
:1026A00088436060FFF77FF9606869680844686084
:1026B0002046FFF725FFBDE87040FFF7C5B870BDA5
:1026C00004481038406870470248103880687047E6
:1026D0007047000084000020800300202E2E5C2E16
:1026E0002E5C4672656552544F535C706F72745C19
:1026F0004D656D4D616E675C686561705F342E631A
:10270000000000004572726F723A25732C25640D2B
:102710000A00000067484068401C04D0F42266A10B
:102720006FA000F015F9502080F31188BFF34F8F90
:10273000BFF36F8FFEE720384FF08073C36121F045
:10274000010181616A49416140F820297047694867
:102750004FF47A710068B0FBF1F14FF0E020491EB0
:1027600041610721016170471CB5634908780190F8
:10277000FF200870087800909DF800004D4A00F096
:10278000500010700720906006E09068401E906036
:102790009DF80000400000909DF800000006F4D471
:1027A000107A000200F4E0609060019808705348CD
:1027B000016841F470010160016841F070410160FD
:1027C000FFF7C5FF00205060FDF7CEFC00201CBDC8
:1027D00038484068B0F57A7F05D04FF4B57236A11D
:1027E0003FA000F0B5B87047502080F31188BFF3C8
:1027F0004F8FBFF36F8F2F494868401C48600128F6
:102800000BD13E481C38006810F0FF0F05D04FF484
:10281000BD7229A132A000F09BB8704710B5254CBD
:102820006068002805D140F2811223A12CA000F09D
:102830008FF86068401E6060002801D180F3118825
:1028400010BD10B5502080F31188BFF34F8FBFF338
:102850006F8FFEF799FF20B128494FF080501C3947
:102860000860002080F3118810BD10B5FDF7B2FCA0
:10287000104C10280CD300F1E02090F8F0032178E0
:10288000884205D24FF42A720BA115A000F060F81F
:102890001A4814380068A16800F4E060884207D93B
:1028A000BDE810404FF42E7203A10DA000F050B807
:1028B00010BD00008C0000202E2E5C2E2E5C467277
:1028C000656552544F535C706F72745C525644533A
:1028D0005C41524D5F434D335C706F72742E6300E8
:1028E0004572726F723A25732C25640D0A00000040
:1028F000152700080000002000E400E020ED00E0C3
:1029000030B50B46014600202022012409E021FABF
:1029100002F59D4205D303FA02F5491B04FA02F5BC
:102920002844151EA2F10102F1DC30BD064C074D12
:1029300006E0E06840F0010394E80700984710348F
:10294000AC42F6D3FDF7F8FB482B0008682B0008D3
:102950000FB4054B10B503A9044A029800F018F80B
:1029600010BC5DF814FB0000AD10000898000020BA
:1029700002E008C8121F08C1002AFAD17047704748
:10298000002001E001C1121F002AFBD170470000A6
:102990002DE9FF4F8BB09A460F460546002606E00C
:1029A00025280BD052460D9990476D1C761C28782F
:1029B0000028F5D10FB03046BDE8F08F0024A046C6
:1029C0000122604900E0044315F8013F203B02FA70
:1029D00003F00842F7D128782E2817D115F8010FF7
:1029E00044F004042A280ED06FF02F022878A0F1BA
:1029F000300109290AD808EB880102EB410100EBFC
:102A000001086D1CF2E757F8048B6D1C28786928C3
:102A10003ED006DC0028CDD063280BD0642804D13A
:102A200036E0732810D075284BD052460D99904748
:102A3000761C85E017F8040B8DF8000000208DF857
:102A40000100E946012003E057F8049B4FF0FF30F6
:102A500061074FF0000401D40AE0641C44450DDA1C
:102A60008442FADB19F804100029F6D106E0641C50
:102A70008442FCDB19F804100029F8D1264404E054
:102A800019F8010B52460D999047641EF8D257E091
:102A900001CF4FF00A0B002802DA40422D2102E05C
:102AA000210504D52B218DF82410012103E0E10735
:102AB00005D02021F7E70DF1200908910CE0002155
:102AC000F9E701CF4FF00A0BF9E75946FFF718FF76
:102AD00001F1300209F8012D0028F6D1ADEB090013
:102AE00000F1200B600701D44FF00108D84502DD4A
:102AF000A8EB0B0000E000208046002406E009A8B7
:102B00005246005D0D999047641C761C08988442DB
:102B1000F5DB04E0302052460D999047761CB8F161
:102B20000001A8F10108F5DC05E019F8010B524697
:102B30000D999047761CBBF10001ABF1010BF4DC61
:102B40006D1C34E709280100682B000800000020F4
:102B50009C00000070290008042C00089C00002044
:102B6000E49600008029000800A24A04000000004A
:102B70000000000001020304060708090204060819
:102B80000000000001020304010203040607080913
:102B90000000000000000000000000000000000035
:102BA0000000000000000000000000000000000025
:102BB0000000000000000000000000000000000015
:102BC0000000000000000000000000000000000005
:102BD00000000000000000000000000000000000F5
:102BE00000000000000000000000000000000000E5
:102BF0000000000000000000AAAAAAAA000000002D
:042C000000000000D0
:0400000508000131BD
:00000001FF
